:0400000048EF00F0D5
:10000800FACF3FF0FBCF40F0E9CF41F0EACF42F022
:10001800E1CF43F0E2CF44F0D9CF45F0DACF46F054
:10002800F3CF47F0F4CF48F0F6CF49F0F7CF4AF0D6
:10003800F8CF4BF0F5CF4CF0F2BAF2A402D0DBECDB
:1000480000F0F2BC9DA003D09EB0C2EC00F04CC002
:10005800F5FF4BC0F8FF4AC0F7FF49C0F6FF48C09C
:10006800F4FF47C0F3FF46C0DAFF45C0D9FF44C0DC
:10007800E2FF43C0E1FF42C0EAFF41C0E9FF40C0E0
:10008800FBFF3FC0FAFF11004AEF00F002EE00F05C
:1000980011EE00F0EE6AE550E150FCE1E250FAE1C1
:1000A80001EE00F011EE00F0EE6AE550E150FCE1DF
:1000B800E250FAE100EE60F0770EEE6AE806FDE144
:1000C80000EE01F0250EEE6AE806FDE12C0EF66E54
:1000D800020EF76E000EF86E00EE26F010EE16F027
:1000E8000900F5CFEEFFE550E150FAE100013FEFDE
:1000F80001F0200ECD6E000EAA6EC00ECF6E000E5F
:10010800CE6ECE50CFCFD9F00001DA6BD9C0DAF07D
:100118000001D96B0001D911536E0001DA51546EF8
:100128009E909D80020E0001D86F980E0001D76F37
:100138002AEC01F048EC01F01200170ED56ED768D2
:10014800EB0ED66ED650D7CFD9F00001DA6BD9C0F6
:10015800DAF00001D96B0001D911516E0001DA51B2
:10016800526EF294F28A020E0001D86F9A0E0001C4
:10017800D76F31EC01F04AEC01F012009E9054C0A8
:100188003CF03CC03DF03E6A3D50CF6E53C0CEFFC0
:1001980050504F10D8B4120001D812000500FA6E62
:1001A8004F50FD6E5050FE6EFF6AFA501200F294E6
:1001B80052C03CF03CC03DF03E6A3D50D76E51C045
:1001C800D6FF4E504D10D8B4120001D812000500C9
:1001D800FA6E4D50FD6E4E50FE6EFF6AFA501200D8
:1001E800000E8A6E000E896E000E8D6E000E8C6EEB
:1001F800000E8B6E0F015B699568070E966E93680B
:10020800D70E946EEF0E926E120044EC01F0F4ECEF
:1002180000F021EC01F038EC01F07DEC00F0A1ECED
:1002280000F012004E58505F03000400000504104F
:100238000C7F1C330D0F15091901600ED36E000ECB
:10024800D26E000E9B6E000E9A6E12000001D8C08E
:1002580050F00001D7C04FF012000001D8C04EF096
:100268000001D7C04DF01200000EC76E200EC66EFA
:10027800000EC86E120009EC01F0F28EF28CFFD766
:10028800D09EF1949F901200CD801200D58E12005E
:04029800120012003E
:10D6240000110031002D002A00000000000000005D
:10D634000000004201A50000000000C100000059E4
:10D64400003D000000000000004B0079000B002F9B
:10D654000011004201A50000004E787052644C692C
:10D66400625F332E3039322E30342E303031353340
:10D67400330028292A2B2C2D2E2F303133353738DF
:10D684003901000800400000020010008001000A77
:10D69400006400E8031027010010000001001000DE
:10D6A400000C00000000000100010002000100065F
:10D6B400002C010700F40109000B000A000D000F03
:10D6C4000000000D0096000E0000000B0010000C7E
:10D6D400000100000000000100010002000100063A
:10D6E40000460007009600090011000A0012000F0E
:10D6F4000001000D0096000E0000000B0010000C4D
:10D70400000000000000000100000002000000060C
:10D7140000E30007002E01090010000A0010000DAC
:10D724000096000E0000000B0010000C000000002A
:10D73400000000010001000200010006000F0007C4
:10D74400000000090001000A0001000D0096000E0F
:10D754000000000B0017000C000000000000000196
:10D764000001000200010006000800070000000993
:10D774000002000A0002000D0096000E0000000BDB
:10D784000017000C0000000000000001000100026E
:10D7940000010006004C0007005500090000000AC3
:10D7A4000000000D0096000E0000000B00CC000CE1
:10D7B400000000000000000100010002000100065A
:10D7C400004C0007000D02090000000A0000000DD3
:10D7D4000096000E0000000B00CC000C00000000BE
:10D7E400000100010000000200000006004C0007D8
:10D7F400005100090000000A0000000D0096000E10
:10D804000000000C00010000000100010000000203
:10D814000000000600430007000D02090000000A92
:10D824000000000D0096000E0000000C0001002D09
:10D834002D2D2D2D2D2D2D2D2D2D2D2D2D2D2D2D14
:10D844002D2D2D2D2D2D2D2D2D2D2D0072202D2006
:10D8540052455455524E20746F204D61696E204DCF
:10D86400656E750054727920416761696E20506C51
:10D87400656173652E002E2E2E2E2E2E2E2E2E2E0C
:10D884002E2E2E2E2E008FCC010A7B7B0800000A40
:10D8940005343F120A8F100106747B180000500FE4
:10D8A400034E12068F1701060909080003800105BB
:10D8B4003F12028F17010609090800038001063F81
:10D8C40012028E15110618180F2700C0CF043F123C
:10D8D4000A8E12110618180F1000C0CF053F12024D
:10D8E4008E12110618180F0800C0CF063F12028FBF
:10D8F400DC110618180F0200C0CF073F12028FCCAC
:10D9040001067B7B0800000F05343F120A8FCC010F
:10D91400067B7B0800000105353F12028FCC01060F
:10D924007B7B0800000105363F12028FCC01067B89
:10D934007B0800000105373F12018F1001067B7B35
:10D94400080000880F034412068F1001067B7B0831
:10D954000000880F024412068F100106119109007D
:10D964000080010436120A8F10010611910900008B
:10D9740080010336120A8F100106119109000080FC
:10D98400010536120A8F1001061191090000800169
:10D994000436120A48656C6C6F20576F726421005C
:10D9A40072202D2052455455524E00111178563490
:10D9B400202D20476574204E585020537973746588
:10D9C4006D20496E666F726D6174696F6E0A3520E1
:10D9D4002D205365742050617373776F7264202017
:10D9E4002020202020202020202028656E746572AD
:10D9F4002070617373776F726420746F2061636346
:10DA04006573732070726F746563746564207061EC
:10DA14007274206F6620746167290A36202D20579E
:10DA2400726974652050617373776F72642020206B
:10DA340020202020202020286368616E67652061F3
:10DA440063636573732070617373776F7264206F9F
:10DA54006E2074686520746167290A37202D204C74
:10DA64006F636B2050617373776F72642020202082
:10DA74002020202020202028212121207065726D63
:10DA8400616E656E74206C6F636B206F66206163DA
:10DA9400636573732070617373776F7264206F6E44
:10DAA40020746865207461672028697272657665E0
:10DAB400727369626C6521212129290A38202D207D
:10DAC40050726F7465637420506167652020202054
:10DAD400202020202020202028616374697661742E
:10DAE40065732050726F7465637420666561747524
:10DAF4007265206F6E2074686520746167290A71ED
:10DB0400202D20537461792051756965742020207B
:10DB14002020202020202020202020287075742000
:10DB240073656C65637465642074616720696E74E1
:10DB34006F20537461792051756974652073746121
:10DB44007465290A70202D205374617920517569F8
:10DB540065742050657273697374656E7420202037
:10DB6400287075742073656C6563746564207461D2
:10DB74006720696E746F20537461792051756974DC
:10DB8400652050657273697374656E742073746173
:10DB94007465290A73202D2052657365742074619D
:10DBA4006728732920746F207265616479202020AE
:10DBB400286F6E652073686F7420526573657420D6
:10DBC400546F20526561647920636F6D6D616E647A
:10DBD400290A78202D2042726F6164636173742076
:10DBE4007265736574206C6F6F7020202020286E1E
:10DBF4006F6E2D6164647265737365642074726101
:10DC04006E736D697373696F6E206F6620526573EE
:10DC1400657420546F20526561647920636F6D6D63
:10DC2400616E64290A25730A69202D20496E766580
:10DC34006E746F7279202020202020202020202044
:10DC44002020202028646574656374696F6E206FDA
:10DC54006620616C6C207461677320696E2074683F
:10DC640065205246206669656C64290A66202D2069
:10DC74004661737420496E76656E746F72792020E4
:10DC84002020202020202020286465746563746986
:10DC94006F6E206F6620616C6C20534C49582D3296
:10DCA400207461677320696E207468652052462071
:10DCB4006669656C64290A6E202D204E756D626557
:10DCC40072206F662054616773202020202020205A
:10DCD40020202028656E646C657373206C6F6F70F0
:10DCE40020696E76656E746F7279202D20666F726E
:10DCF400206578697420706C656173652070726545
:10DD0400737320746865204C504358707265737344
:10DD14006F205265737461727420627574746F6ECF
:10DD2400290A25730A0A000A494C54202D20434F1E
:10DD34004D4D414E4453202D0A25730A31202D2088
:10DD440052656164202020202020202020202020D3
:10DD54002020202020202020287265616420313278
:10DD6400204279746573206F662075736572206D27
:10DD7400656D6F7279206174206164647265737378
:10DD84003A2030783030290A32202D2057726974B5
:10DD9400652020202020202020202020202020203A
:10DDA400202020202877726974652031322062791E
:10DDB40074657320746F2075736572206D656D6F63
:10DDC400727920617420616464726573733A2030DF
:10DDD400783030290A33202D204163636573732022
:10DDE40050617373776F72642020202020202020DC
:10DDF40020287365742F72656164206163636573A1
:10DE0400732070617373776F726420746F20746809
:10DE14006520746167290A34202D207365742041BC
:10DE240063636573732050617373776F726420202A
:10DE340020202028736574207573657220706173C7
:10DE440073776F726420746F20736F667477617276
:10DE540065206D656D6F727920666F7220616363F2
:10DE6400657373696E672070617373776F72642072
:10DE740070726F74656374656420746167290A3510
:10DE8400202D204C6F636B20202020202020202078
:10DE94002020202020202020202020286C6F636B4D
:10DEA400207468652075736572206D656D6F727975
:10DEB400206F6E2074616720666F722077726974B8
:10DEC40065290A25730A69202D20496E76656E74CA
:10DED4006F72792020202020202020202020202044
:10DEE400202028646574656374696F6E206F6620F2
:10DEF400616C6C207461677320696E20746865209E
:10DF04005246206669656C64290A6E202D204E7580
:10DF14006D626572206F6620546167732020202033
:10DF240020202020202028656E646C657373206C8B
:10DF34006F6F7020696E76656E746F7279202D2014
:10DF4400666F72206578697420706C6561736520F2
:10DF5400707265737320746865204C5043587072F6
:10DF64006573736F20526573746172742062757483
:10DF7400746F6E290A73202D2053696E676C6520B7
:10DF840054616720446574656374696F6E20202052
:10DF9400202873696E676C6520746167206F7065F3
:10DFA400726174696F6E73290A63202D20436F6E4A
:10DFB40066696775726174696F6E205365747469FC
:10DFC4006E6720202028646574656374696F6E2011
:10DFD400706172616D6574657273207365747469C0
:10DFE4006E6773290A25730A0A0034202D2053749E
:10DFF400617920517569657420202020202020201B
:10E00400202020202020287075742073656C65639F
:10E014007465642074616720696E746F2053746141
:10E0240079205175697465207374617465290A35A2
:10E03400202D20526573657420746167287329202C
:10E04400746F207265616479202020286F6E6520CA
:10E0540073686F7420526573657420546F20526521
:10E0640061647920636F6D6D616E64290A36202DB9
:10E074002042726F616463617374207265736574A6
:10E08400206C6F6F7020202020286E6F6E2D6164CD
:10E0940064726573736564207472616E736D697301
:10E0A40073696F6E206F6620526573657420546FB8
:10E0B40020526561647920636F6D6D616E64290A15
:10E0C40025730A69202D20496E76656E746F727906
:10E0D4002020202020202020202020202020202834
:10E0E400646574656374696F6E206F6620616C6C1F
:10E0F400207461677320696E20746865205246201D
:10E104006669656C64290A6E202D204E756D626502
:10E1140072206F6620546167732020202020202005
:10E1240020202028656E646C657373206C6F6F709B
:10E1340020696E76656E746F7279202D20666F7219
:10E14400206578697420706C6561736520707265F0
:10E15400737320746865204C5043587072657373F0
:10E164006F205265737461727420627574746F6E7B
:10E17400290A25730A0A0031202D2070726F7465F4
:10E1840063742070616765204C20666F722072652D
:10E194006164696E670A32202D2070726F74656342
:10E1A400742070616765204820666F722072656113
:10E1B40064696E670A33202D2070726F746563740E
:10E1C4002070616765204C20666F722077726974D5
:10E1D400696E670A34202D2070726F746563742031
:10E1E40070616765204820666F7220777269746970
:10E1F4006E670A35202D20636C6561722070726F22
:10E2040074656374696F6E0A25730A4E4F54453AF8
:10E21400206265666F72652063616C6C696E67204D
:10E224002250726F746563742050616765222063A5
:10E234006F6D6D616E642C20706C65617365206315
:10E24400616C6C20225365742050617373776F7214
:10E2540064222066756E6374696F6E20746F206526
:10E264006E746572205245414420616E6420575299
:10E274004954452070617373776F72642E0A0025C8
:10E28400730A31202D207772697465206163636598
:10E2940073732070617373776F726420746F20746A
:10E2A400686520746167203A20307830303030302F
:10E2B4003030300A32202D20777269746520616312
:10E2C400636573732070617373776F726420746F06
:10E2D4002074686520746167203A203078313131C8
:10E2E40031313131310A33202D2077726974652040
:10E2F4006163636573732070617373776F726420F5
:10E30400746F2074686520746167203A2030783116
:10E31400323334353637380A34202D20726561643F
:10E3240020206163636573732070617373776F7208
:10E33400642066726F6D20746865207461670A35A5
:10E34400202D20757365207468652041434345532F
:10E354005320636F6D6D616E64206F6E2074686509
:10E36400207461670A25730A004552524F52202DCA
:10E37400205772697465203A20496E737566666920
:10E384006369656E7420706F7765722E20546167BF
:10E39400206973206F6E20626F72646572206F66ED
:10E3A40020726561646572206669656C64207261BF
:10E3B4006E6765206F7220697420697320736869C1
:10E3C400656C646564206279206F7468657220747A
:10E3D4006167732E0A4974206973207265636F6DD7
:10E3E4006D656E64656420746F2072656164207469
:10E3F4006865206A757374207772697474656E2019
:10E4040070617274206F6620746167206D656D6F32
:10E4140072792E204F6E6C792070617274206F6651
:10E424002072657175657374656420696E666F72B8
:10E434006D6174696F6E206D6967687420686176B8
:10E4440065206265656E207772697474656E2E0A44
:10E454000031202D20526561642053696E676C651C
:10E4640020426C6F636B20202020202020287265BE
:10E47400616420626C6F636B2028307825322E3201
:10E484005829202D2034206279746573290A32209A
:10E494002D2057726974652053696E676C6520423C
:10E4A4006C6F636B202020202020287772697465AC
:10E4B400203420627974657320746F20626C6F63FA
:10E4C4006B2028307825322E325829290A33202D02
:10E4D4002052656164204D756C7469706C652042CE
:10E4E4006C6F636B73202020202872656164203276
:10E4F40020626C6F636B73202838206279746573B3
:10E50400292066726F6D20307825322E325820749F
:10E514006F20307825322E3258290A0031202D20E0
:10E524006C6F636B2075736572206D656D6F7279A6
:10E5340020666F7220777269746520287772697417
:10E544006520697320706F737369626C65206F6EE8
:10E554006C792069662074616720697320696E2074
:10E5640073656375726564207374617465202861D2
:10E5740063636573732070737764206973207365B4
:10E584007429290A32202D20756E6C6F636B2075F7
:10E59400736572206D656D6F727920666F72207776
:10E5A40072697465202877726974652069732061C3
:10E5B4006C7761797320706F737369626C6520285E
:10E5C40073656375726520616E64206F70656E207B
:10E5D40073746174652929200A000A494C54202D5A
:10E5E40020636F6E66696775726174696F6E202D42
:10E5F4000A25730A31202D207365742041636365F5
:10E6040073730A32202D204469766964652072612F
:10E6140074696F0A33202D204D6F64756C617469C1
:10E624006F6E0A34202D2054526578740A35202DDB
:10E634002053656C656374696F6E0A36202D205310
:10E64400657373696F6E0A37202D205120706172D3
:10E65400616D657465720A25730A30202D20736517
:10E664007420746F2064656661756C7420736574BE
:10E6740074696E670A72202D2052455455524E20FB
:10E68400746F204D61696E204D656E750A00506C83
:10E69400656173652073656C656374206F6E6520B6
:10E6A4006F662074686520666F6C6C6F77696E673F
:10E6B4002075736572206163636573732070617381
:10E6C40073776F7264733A200A25730A31202D2000
:10E6D400307830303030303030300A32202D203035
:10E6E4007831313131313131310A33202D203078D4
:10E6F40031323334353637380A34202D207265618F
:10E70400642075736572206163636573732070613F
:10E714007373776F72640A25730A005468652076F0
:10E72400657273696F6E206E756D626572206F66B7
:10E7340020746865207265616465722049432069AC
:10E744007320494E434F52524543542E0A506C6530
:10E7540061736520636865636B2074686520636F0B
:10E764006E6E656374696F6E206F662074686520D1
:10E7740072656164657220616E64204D43552C207E
:10E784007468656E2072656C61756E636820746868
:10E794006520736F6674776172652E0A0045525264
:10E7A4004F52202D205772697465203A20546865B1
:10E7B40020737065636966696564206D656D6F7249
:10E7C40079206C6F636174696F6E20646F65732068
:10E7D4006E6F74206578697374206F722074686535
:10E7E40020455043206C656E677468206669656CCB
:10E7F40064206973206E6F7420737570706F727407
:10E8040065642062792074686520746167004552EC
:10E81400524F52202D204C6F636B205061737377DD
:10E824006F72640A25730A4E4F54453A2062656636
:10E834006F72652063616C6C696E6720224C6F6334
:10E844006B2050617373776F72642220636F6D6DF8
:10E85400616E642C20706C656173652063616C6CFF
:10E8640020225365742050617373776F7264222081
:10E8740066756E6374696F6E2E0A0031202D2065F3
:10E884006E746572207468652070617373776F723B
:10E894006420746F20616363657373202272656101
:10E8A40064696E6722206F7065726174696F6E733C
:10E8B4000A32202D20656E7465722074686520709C
:10E8C400617373776F726420746F2061636365731F
:10E8D40073202277726974696E6722206F70657283
:10E8E4006174696F6E730A0031202D206164647253
:10E8F4006573736564206D6F6465202D2072657384
:10E90400657420746F207265616479207072657615
:10E91400696F75736C792063686F73656E207461B9
:10E92400670A32202D206E6F6E20616464726573F5
:10E93400736564206D6F6465202D20726573657442
:10E9440020746F20726561647920616C6C2074613D
:10E9540067730A004552524F52202D205772697432
:10E9640065203A205468652073706563696669653B
:10E9740064206D656D6F7279206C6F636174696F6B
:10E984006E206973206C6F636B65642E20506C6518
:10E9940061736520416363657373207468652074D3
:10E9A4006167206265666F726520577269746520BD
:10E9B400636F6D6D616E642075736167650A000A2B
:10E9C4004C696E653A2025642020204572726F726E
:10E9D400202D202830782530345829206861732070
:10E9E4006F63637572726564203A203078434345DF
:10E9F400452043432D436F6D706F6E656E742049DF
:10EA0400442C2045452D4572726F7220636F6465F6
:10EA14002E2052656665722D70685F53746174753B
:10EA2400732E680A2000506C656173652C2069742C
:10EA3400206973206E656365737361727920746FE6
:10EA44002072656D6F7665207461672066726F6DE4
:10EA540020746865206669656C6420616E64206951
:10EA64006E73657274206974206261636B206166E1
:10EA740074657220656E74657220612077726F6EA2
:10EA8400672070617373776F72642E0A0031202DD2
:10EA940020616464726573736564206D6F646520BE
:10EAA4002D20777269746520746F207072657669A1
:10EAB4006F75736C792063686F73656E207461671A
:10EAC4000A32202D206E6F6E206164647265737348
:10EAD4006564206D6F6465202D20777269746520EC
:10EAE400746F20616C6C20746167730A00446174F4
:10EAF400612068617665206265656E20777269744D
:10EB040074656E2E0A4D656D6F72792042616E6B6D
:10EB1400202020203D2025580A4D656D6F727920F4
:10EB240041646472657373203D2025580A446174FE
:10EB340061204C656E677468202020203D20256488
:10EB440020776F7264730A004552524F52202D2071
:10EB54004C6F636B203A20506C656173652C2061A7
:10EB640063636573732074686520746167206265EC
:10EB7400666F7265204C6F636B20636F6D6D616EA1
:10EB840064207573616765202D207475726E204151
:10EB9400636365737320636F6D6D616E64204F4EA4
:10EBA4000A00576861742073686F756C6420746818
:10EBB40065206D6F64756C6174696F6E2062653F6A
:10EBC4000A30202D20464D300A31202D204D696C0D
:10EBD4006C657220380A32202D204D616E636865A1
:10EBE4007374657220320A33202D204D616E636880
:10EBF400657374657220340A00506C656173652016
:10EC0400747970652076616C756520666F72205129
:10EC140020706172616D6574657220696E20726125
:10EC24006E67652030202D2031353A0A4E6F7465A9
:10EC34003A206E6F6E6E756D6265722063686172E4
:10EC44006163746572206D65616E7320300A0065BE
:10EC54006E746572207468652063757272656E7473
:10EC64002070617373776F726420746F20616363C3
:10EC74006573732074686520746167202833322DAE
:10EC8400626974204D5342206669727374202D208A
:10EC94006865783A20307858585858585858582940
:10ECA4000A004552524F52202D20496E636F7272F2
:10ECB4006563742070617373776F7264206F722060
:10ECC4005365742050617373776F726420636F6D42
:10ECD4006D616E64206973206E6F7420737570703B
:10ECE4006F727465642062792063686F73656E2047
:10ECF4007461670A00506C656173652C20747970C7
:10ED04006520686F77206D616E79207365636F6E1F
:10ED14006473202831202D20392920646F20796FD5
:10ED240075206E65656420746F2062726F61646320
:10ED340061737420526573657420546F2052656149
:10ED440064792E0A000A534C49202D204D41494E26
:10ED5400204D454E55202D0A25730A2069202D206B
:10ED6400534C495820202020496E76656E746F728A
:10ED7400790A2073202D20534C49582D32202049E4
:10ED84006E76656E746F72790A25730A25730A0AA2
:10ED9400004552524F52202D20476574204E585042
:10EDA4002053797374656D20496E666F726D61745A
:10EDB400696F6E20636F6D6D616E64206973206E80
:10EDC4006F7420737570706F72746564206279203B
:10EDD40063686F73656E207461670A004552524F11
:10EDE40052202D20416374697661746520436172F9
:10EDF40064203A20546167206973206E6F7420691F
:10EE04006E20746865205246206669656C64206FC4
:10EE140072206973206E6F7420696E76656E746FEC
:10EE240072696564290A004552524F52202D2053BD
:10EE340074617920517569657420506572736973C2
:10EE440074656E7420636F6D6D616E6420697320E8
:10EE54006E6F7420737570706F727465642062795C
:10EE64002063686F73656E207461670A00576F755D
:10EE74006C6420796F75206C696B6520746F2075E4
:10EE84007365207468652041434345535320636F81
:10EE94006D6D616E64206F6E2074686520546167C7
:10EEA4003F0A30202D204E6F0A31202D20596573E2
:10EEB4000A000A4D61696E204D454E550A25730AB4
:10EEC40031202D20494C5420746167732068616E91
:10EED400646C696E670A32202D20534C492074619A
:10EEE40067732068616E646C696E670A65202D2003
:10EEF400457869740A0031202D2077726974652081
:10EF04002248656C6C6F20776F7264212220746FC5
:10EF14002055534552206D656D6F72790A32202D4C
:10EF240020636C6561722055534552206D656D6F89
:10EF340072790A25730A00506C6561736520656EE9
:10EF4400746572206E65772070617373776F726475
:10EF5400202833322D626974204D53422066697231
:10EF64007374202D206865783A20307858585858A2
:10EF740058585858290A004552524F52202D2057AC
:10EF8400726974652050617373776F726420636F64
:10EF94006D6D616E64206973206E6F74207375707B
:10EFA400706F727465642062792063686F73656E34
:10EFB400207461670A004552524F52202D204C6F35
:10EFC400636B2050617373776F726420636F6D6D30
:10EFD400616E64206973206E6F7420737570706F36
:10EFE400727465642062792063686F73656E20743F
:10EFF40061670A004552524F52202D2050726F749F
:10F00400656374205061676520636F6D6D616E6424
:10F01400206973206E6F7420737570706F727465DD
:10F02400642062792063686F73656E207461670A77
:10F03400004E6F2054616720646574656374656471
:10F044002E200A20506C656173652C2072657065F2
:10F0540061742074686520494E56454E544F525988
:10F064002028707265737320276927290A0057685E
:10F0740061742073686F756C6420746865205452E1
:10F084006578742062653F0A30202D204E6F207011
:10F09400696C6F7420746F6E650A31202D2070695D
:10F0A4006C6F7420746F6E650A00656E74657265AA
:10F0B40064206E756D626572206973206F757420AB
:10F0C4006F662072616E67650A506C656173652CAA
:10F0D400207479706520616E6F74686572206E7536
:10F0E4006D6265720A00576861742073686F756C8D
:10F0F4006420746865206469766973696F6E207230
:10F104006174696F2062653F0A30202D20343234E7
:10F114004B487A0A31202D203834374B487A0A007C
:10F124004170706C69636174696F6E2068617320EB
:10F134006265656E2053544F500A205468616E6BAB
:10F1440020796F7520666F7220796F7572207469EB
:10F154006D65203A2D29200A005768617420736870
:10F164006F756C642062652073656C656374656497
:10F174003F0A30202D20416C6C0A31202D20416C37
:10F184006C0A32202D207E534C0A33202D20534C00
:10F194000A00496E76616C696420696E7075742C1E
:10F1A40020706C65617365207265747279202831F2
:10F1B400202D2039206F722027722720666F72203D
:10F1C40072657475726E290A005120706172616DE6
:10F1D400657465722073657420746F2025642E2015
:10F1E4005265616465722077696C6C207065726623
:10F1F4006F726D20256420726F756E64732E0A0021
:10F204004552524F52202D20416363657373203A57
:10F2140020556E6B6E6F776E206572726F722077F9
:10F224006974682041636365737320636F6D6D61F6
:10F234006E640A004F4B202D206163636573732055
:10F2440070617373776F726420686173206265659F
:10F254006E207065726D616E656E746C79206C6F72
:10F26400636B65640A004D6F726520746167732077
:10F274006465746563746564207468616E206D618F
:10F2840078696D756D20736F667477617265206C33
:10F29400696D69742E0A0057686963682053657341
:10F2A40073696F6E2073686F756C64206265207477
:10F2B400617267657465643F0A30202D2053300AFB
:10F2C40032202D2053320A00546865207061737314
:10F2D400776F726420666F72202272656164696E52
:10F2E4006722206F7065726174696F6E7320697331
:10F2F400207365742E200A0054686520706173734E
:10F30400776F726420666F72202277726974696EF7
:10F314006722206F7065726174696F6E7320697300
:10F32400207365742E200A0044656661756C742030
:10F33400706172616D65746572732073657474694C
:10F344006E6720686173206265656E206578656309
:10F354007574656420210A005468652076657273AB
:10F36400696F6E206E756D626572206F66207468B9
:10F3740065207265616465722049432069733A208F
:10F38400253032580A0053657175656E6365202512
:10F3940073207772697474656E2073756363657323
:10F3A4007366756C6C7920746F20626C6F636B206C
:10F3B40025640A004C6F636B20636F6D6D616E642E
:10F3C40020686173206265656E2066696E69736882
:10F3D4006564207769746820737563636573732E3D
:10F3E4000A00256420627974657320726561643A49
:10F3F4000A426C6F636B206E756D626572207C20AF
:10F40400426C6F636B20636F6E74656E740A000ADE
:10F4140063686F6F73652061205461672066726F43
:10F424006D2072616E6765202831202D20256429A6
:10F4340020646563696D616C200A004552524F5225
:10F44400202D205265715F526E3A20546167206905
:10F4540073206E6F7420696E207468652052462094
:10F464006669656C640A00696E7465726E616C200D
:10F474006572726F72202D2074727920746F2075FA
:10F48400736520696E76616C69642074696D657258
:10F494000A0025730A7C4E6F2E7C202043524320A1
:10F4A400207C2050432F5843207C20554949206C10
:10F4B400656E677468200A25730A002252656164C8
:10F4C400696E6722206F7065726174696F6E732054
:10F4D40070617373776F72642073657474696E6797
:10F4E4002E0A002257726974696E6722206F706554
:10F4F400726174696F6E732070617373776F726475
:10F504002073657474696E672E0A00534C49582D34
:10F5140032202D20476574204E585020537973743F
:10F52400656D20496E666F726D6174696F6E0A2530
:10F53400730A004552524F52202D20577269746548
:10F544002050617373776F7264203A20556E6B6E2E
:10F554006F776E206572726F720A004143434553A0
:10F56400532066656174757265206F6620746865E2
:10F5740020546167206973202825312E3158293A97
:10F5840020004C696E653A20256420202066696C51
:10F59400653A2025732020206572726F723A2030FC
:10F5A40078253034580A004552524F52202D2047B6
:10F5B4006574204E58502053797374656D20496EDC
:10F5C400666F726D6174696F6E0A00426C6F636B73
:10F5D400206E756D6265722025640A256420627947
:10F5E40074657320726561643A0A25730A00534C8A
:10F5F4004958202D204E756D626572206F66204932
:10F604006E76656E746F7269656420546167730AFF
:10F61400004552524F52202D205772697465203A8A
:10F62400204E6F6E2D737065636966696320657221
:10F63400726F72002020202D2D2D202049434F442D
:10F64400452044656D6F2050726F6A656374202095
:10F654002D2D2D0A0A004552524F52202D206E6F37
:10F66400742063686F73656E206F7065726174696E
:10F674006F6E20522F570A004F4B202D205468657F
:10F68400207061676520686173206265656E207013
:10F69400726F7465637465640A00534C49582D3263
:10F6A400202D2052656164204D756C7469706C6501
:10F6B40020426C6F636B730A25730A0041636365B0
:10F6C40073732070617373776F7264206861732041
:10F6D4006265656E207772697474656E0A00494CC0
:10F6E40054202D204E756D626572206F6620496E20
:10F6F40076656E746F7269656420546167730A007D
:10F7040050726F74656374696F6E20706F696E7484
:10F7140065723A2020202020307825322E32580A73
:10F724000050726F74656374696F6E20636F6E64EA
:10F734006974696F6E733A2020307825322E3258FE
:10F744000A0052657175657374207472616E736614
:10F7540065726564207375636365737366756C6C39
:10F76400790A000A25730A6E756D626572206F66E8
:10F7740020646574656374656420746167733A20FA
:10F7840025640A00596F757220656E746572206E67
:10F79400756D6265722069732077726F6E67203DA4
:10F7A4002025640A00557365722070617373776F46
:10F7B40072642069732073657420746F203A20305A
:10F7C400782025730A00534C4958202D2072656116
:10F7D40064206D756C7469706C6520626C6F636B0A
:10F7E400730A25730A004F4B202D206163636573F0
:10F7F400732070617373776F7264207772697474A5
:10F80400656E200A00482070616765207265616436
:10F814002020202D204E4F542050524F5445435405
:10F8240045440A004C20706167652072656164205C
:10F8340020202D204E4F542050524F5445435445C0
:10F84400440A0048207061676520777269746520F6
:10F85400202D204E4F542050524F5445435445447C
:10F864000A004C20706167652077726974652020F6
:10F874002D204E4F542050524F5445435445440A72
:10F88400004552524F52202D2053746179205175F6
:10F894006974652050657273697374656E740A00C7
:10F8A4005461672064657465637465643A204352E7
:10F8B400433A20307825303258253032580A0045F2
:10F8C40052524F52202D2057726F6E67204163634E
:10F8D4006573732050617373776F72640A004552C5
:10F8E400524F52202D205772697465203A20556E6C
:10F8F4006B6E6F776E206572726F720A00414343BC
:10F90400455353206F6E20746865205461672069E5
:10F9140073202825312E3158293A2000456E74650C
:10F924007265642070617373776F72642069733ACF
:10F9340020307825382E38580A0031202D2077724F
:10F9440069746520224E58505F2220746F20626CC7
:10F954006F636B2025640A004552524F52202D20BC
:10F964004C6F636B203A20556E6B6E6F776E20651B
:10F9740072726F720A00696E76616C696420696ED6
:10F984007075742C20706C65617365207265747277
:10F99400790A00494C54202D207365742041636317
:10F9A4006573732050617373776F7264202D0A003E
:10F9B400494C54202D20436F6E66696775726174DB
:10F9C400696F6E2053657474696E670A00534C49FD
:10F9D400582D32202D20577269746520506173733D
:10F9E400776F72640A25730A0025730A7C4E6F2EA2
:10F9F4007C20207479706520207C20554944207C2B
:10FA04000A25730A004552524F52202D2052656137
:10FA1400644D756C7469706C65426C6F636B730ACA
:10FA240000494C54202D2053696E676C6520546145
:10FA34006720446574656374696F6E0A00482070BA
:10FA440061676520726561642020202D2050524F2B
:10FA54005445435445440A004C2070616765207244
:10FA64006561642020202D2050524F544543544555
:10FA7400440A0048207061676520777269746520C4
:10FA8400202D2050524F5445435445440A004C20E5
:10FA94007061676520777269746520202D2050524B
:10FAA4004F5445435445440A00534C49582D322081
:10FAB4002D204C6F636B2050617373776F72640AEF
:10FAC40025730A006E65772070617373776F7264B3
:10FAD4002069733A20307825382E38580A00534C60
:10FAE40049582D32202D205365742050617373774B
:10FAF4006F72640A25730A00534C49582D32202D25
:10FB04002050726F7465637420506167650A2573B1
:10FB14000A005374617920517569657420506572C7
:10FB240073697374656E740A25730A002E2E2F4E42
:10FB340058502F7372632F69636F64655F736C69C8
:10FB44005F75692E63006E756D626572206F662045
:10FB5400646574656374656420746167733A0A004C
:10FB64002E2E2F4E58502F7372632F69636F646566
:10FB74005F696C745F75692E6300496E69746961AD
:10FB84006C697A6174696F6E20636F6D706C6574F3
:10FB9400650A006E6F20667265652074696D657212
:10FBA40020617661696C61626C650A000A534C4994
:10FBB400582D32202D20434F4D4D414E4453202D7E
:10FBC4000A25730A00534C49582D32202D204661D2
:10FBD400737420496E76656E746F72790A004D7580
:10FBE4006C7469706C6520746167732064657465F6
:10FBF400637465642E0A004552524F52202D2057DB
:10FC0400726974652050617373776F72640A00526D
:10FC14006573657420746F207265616479204C6F1C
:10FC24006F700A25730A004552524F52202D2052FC
:10FC34006573657420746F2052656164790A006D80
:10FC4400656D6F727920636F6E74656E74203A20EF
:10FC540030782025730A000A534C4958202D20433C
:10FC64004F4D4D414E4453202D0A25730A00534CE9
:10FC74004958202D20726573657420746F20726555
:10FC84006164790A004552524F52202D2053657405
:10FC94002050617373776F72640A004552524F5259
:10FCA400202D2050726F7465637420506167650A5B
:10FCB40000534C4958202D205374617920517569A3
:10FCC40065740A25730A00414649202020202D200E
:10FCD4006E6F74206C6F636B65640A0050504C2027
:10FCE4002020202D206E6F74206C6F636B65640A76
:10FCF40000454153202020202D206E6F74206C6F0E
:10FD0400636B65640A00445346494420202D206EE9
:10FD14006F74206C6F636B65640A00534C49582000
:10FD24002D20496E76656E746F72790A25730A0008
:10FD34004E4F207461672064657465637465642044
:10FD44002121210A007465787420636F6E74656ED6
:10FD5400742020203A2025730A007C2533647C20FB
:10FD640025322E32582025322E3258207C20005540
:10FD74006E6B6E6F776E204572726F723A20253407
:10FD84002E3458002E2E2F4E58502F70686877430B
:10FD94006F6E6669672E630032202D20636C656187
:10FDA4007220626C6F636B2025640A004552524FC7
:10FDB40052202D20537461792051756965740A00AD
:10FDC400534C49582D32202D2057726974650A25E9
:10FDD400730A00526573657420546F205265616420
:10FDE400790A25730A002E2E2F4E58502F737263F2
:10FDF4002F6D61696E2E6300534C49582D32202DAE
:10FE040020526561640A25730A00534C4958202D19
:10FE140020496E76656E746F72790A002530325807
:10FE240020202020202020202020207C2000494C3D
:10FE340054202D20736574204C4F434B202D0A0011
:10FE4400303132333435363738394142434445460C
:10FE540000303132333435363738396162636465A2
:10FE64006600414649202020202D206C6F636B657D
:10FE7400640A0050504C202020202D206C6F636BAE
:10FE840065640A00454153202020202D206C6F63B7
:10FE94006B65640A00445346494420202D206C6F4E
:10FEA400636B65640A00534C4958202D20777269AE
:10FEB40074650A25730A00494C54202D20496E7636
:10FEC400656E746F72790A00534C4958202D207264
:10FED4006561640A25730A00494C54202D2041436E
:10FEE40043455353202D0A004552524F52202D2092
:10FEF40057726974650A00494C54202D20575249A1
:10FF04005445202D0A006E6F207461672063686F6A
:10FF140073656E0A00436F6E74656E74203D202015
:10FF240025730A006475726174696F6E3A202564E2
:10FF34000A007461677320726573657465640A00EE
:10FF440063686F696365203E2025640A0A00494C92
:10FF540054202D2052454144202D0A004552524F31
:10FF640052202D20526561640A0020534C492052CE
:10FF74004655207C200020496E76616C6964207CA3
:10FF8400200030202D2072657475726E0A00547240
:10FF94007920616761696E0A002020534C49202052
:10FFA400207C20002020534C495820207C20002015
:10FFB40020534C495832207C20005549443A20258E
:10FFC400730A005549493A2025730A007C202532DA
:10FFD40064207C0A00286E756C6C29007C253364CF
:10FFE4007C200025322E3258200025303258200043
:0CFFF4004F46460A002573003E20000026
:020000040020DA
:08000000FFFFFFFFFFFFFFFF00
:020000040030CA
:0E0000001D197F7CFF8991FF0FC00FE00F409C
:00000001FF
